:020000040800F2
:100000008004002071020008F5020008F5020008D3
:10001000F5020008F5020008F502000800000000E3
:10002000000000000000000000000000F5020008D1
:10003000F502000800000000F5020008F5020008C3
:10004000F5020008F5020008F5020008F5020008B4
:1000500000000000F5020008F5020008F5020008A3
:10006000F5020008F5020008F5020008F502000894
:10007000F5020008F5020008F5020008F502000884
:10008000F5020008F5020008F5020008F502000874
:10009000F5020008F5020008F5020008F502000864
:1000A000F5020008F5020008F5020008F502000854
:1000B000F5020008F5020008F5020008F502000844
:1000C000F5020008F5020008F5020008F502000834
:1000D000F5020008F5020008F5020008F502000824
:1000E000F5020008F5020008F5020008F502000814
:1000F000F5020008F5020008F5020008F502000804
:10010000F5020008F5020008F5020008F5020008F3
:10011000F5020008F5020008F5020008F5020008E3
:10012000F5020008F5020008F5020008F5020008D3
:10013000F5020008F5020008F5020008F5020008C3
:10014000F5020008F5020008F5020008F5020008B3
:10015000F5020008F5020008F5020008F5020008A3
:10016000F5020008F5020008F5020008F502000893
:10017000F5020008F5020008F5020008F502000883
:10018000F5020008F502000880B500AF00F016F88F
:1001900000F03DF8084B5B69074A43F020035361C8
:1001A000054B5B69044A83F0200353614FF4FA70F6
:1001B00000F012F8F4E700BF0000024080B400AF86
:1001C000044B1B68034A43F00103136000BFBD46A4
:1001D00080BC70470038024080B485B000AF7860C2
:1001E0000AE00023FB6002E0FB680133FB60FB6870
:1001F00041F287329342F7D97B685A1E7A60002B0E
:10020000EFD100BF00BF1437BD4680BC704780B43B
:1002100000AF144B1B6B134A43F004031363124BE0
:10022000DB68114A43F08063D3600E4B1B6B0D4AB1
:1002300043F0010313630D4B1B680C4A43F48063C6
:1002400013600A4B5B68094A23F020035360074B95
:100250009B68064A43F48063936000BFBD4680BC40
:10026000704700BF00380240000802400000024012
:1002700080B586B000AF1A4A1A4BD31A7B60194B6F
:100280007B61194B3B610023FB600AE03A69531C18
:100290003B617B69591C796112781A70FB680133E4
:1002A000FB60FA687B689A42F0D3104A104BD31A6D
:1002B0007B600F4B7B610023BB6007E07B695A1CAE
:1002C0007A6100221A70BB680133BB60BA687B6830
:1002D0009A42F3D3FFF758FF00BF1837BD4680BDE1
:1002E0000000002000000020FC02000800000020A8
:0C02F0000000002080B400AFFEE700BF5B
:04000005080002717C
:00000001FF
